{
  "contractName": "Election",
  "abi": [
    {
      "inputs": [],
      "payable": false,
      "stateMutability": "nonpayable",
      "type": "constructor"
    },
    {
      "constant": true,
      "inputs": [],
      "name": "organiser",
      "outputs": [
        {
          "internalType": "address",
          "name": "",
          "type": "address"
        }
      ],
      "payable": false,
      "stateMutability": "view",
      "type": "function"
    },
    {
      "constant": true,
      "inputs": [],
      "name": "status",
      "outputs": [
        {
          "internalType": "bool",
          "name": "",
          "type": "bool"
        }
      ],
      "payable": false,
      "stateMutability": "view",
      "type": "function"
    },
    {
      "constant": true,
      "inputs": [
        {
          "internalType": "address",
          "name": "",
          "type": "address"
        }
      ],
      "name": "voters",
      "outputs": [
        {
          "internalType": "uint256",
          "name": "",
          "type": "uint256"
        }
      ],
      "payable": false,
      "stateMutability": "view",
      "type": "function"
    },
    {
      "constant": false,
      "inputs": [],
      "name": "startVoting",
      "outputs": [],
      "payable": false,
      "stateMutability": "nonpayable",
      "type": "function"
    },
    {
      "constant": false,
      "inputs": [],
      "name": "endVoting",
      "outputs": [],
      "payable": false,
      "stateMutability": "nonpayable",
      "type": "function"
    },
    {
      "constant": false,
      "inputs": [
        {
          "internalType": "uint256",
          "name": "index",
          "type": "uint256"
        }
      ],
      "name": "vote",
      "outputs": [],
      "payable": false,
      "stateMutability": "nonpayable",
      "type": "function"
    },
    {
      "constant": false,
      "inputs": [],
      "name": "check",
      "outputs": [
        {
          "internalType": "bool",
          "name": "",
          "type": "bool"
        }
      ],
      "payable": false,
      "stateMutability": "nonpayable",
      "type": "function"
    },
    {
      "constant": true,
      "inputs": [],
      "name": "getResult",
      "outputs": [
        {
          "internalType": "uint256[]",
          "name": "",
          "type": "uint256[]"
        }
      ],
      "payable": false,
      "stateMutability": "view",
      "type": "function"
    }
  ],
  "bytecode": "0x60806040526000600a5534801561001557600080fd5b5033600860016101000a81548173ffffffffffffffffffffffffffffffffffffffff021916908373ffffffffffffffffffffffffffffffffffffffff1602179055506000600860006101000a81548160ff02191690831515021790555060008060006008811061008157fe5b018190555060008060016008811061009557fe5b01819055506000806002600881106100a957fe5b01819055506000806003600881106100bd57fe5b01819055506000806004600881106100d157fe5b01819055506000806005600881106100e557fe5b01819055506000806006600881106100f957fe5b018190555060008060076008811061010d57fe5b0181905550610646806101216000396000f3fe608060405234801561001057600080fd5b50600436106100885760003560e01c8063919840ad1161005b578063919840ad14610131578063a3ec138d14610153578063c3403ddf146101ab578063de292789146101b557610088565b80630121b93f1461008d5780631ec6b60a146100bb578063200d2ed2146100c55780637e537486146100e7575b600080fd5b6100b9600480360360208110156100a357600080fd5b8101908080359060200190929190505050610214565b005b6100c36102e8565b005b6100cd610411565b604051808215151515815260200191505060405180910390f35b6100ef610424565b604051808273ffffffffffffffffffffffffffffffffffffffff1673ffffffffffffffffffffffffffffffffffffffff16815260200191505060405180910390f35b61013961044a565b604051808215151515815260200191505060405180910390f35b6101956004803603602081101561016957600080fd5b81019080803573ffffffffffffffffffffffffffffffffffffffff1690602001909291905050506104a6565b6040518082815260200191505060405180910390f35b6101b36104be565b005b6101bd610535565b6040518080602001828103825283818151815260200191508051906020019060200280838360005b838110156102005780820151818401526020810190506101e5565b505050509050019250505060405180910390f35b60011515600860009054906101000a900460ff1615151461023457600080fd5b600a54600960003373ffffffffffffffffffffffffffffffffffffffff1673ffffffffffffffffffffffffffffffffffffffff168152602001908152602001600020541061028157600080fd5b600a54600960003373ffffffffffffffffffffffffffffffffffffffff1673ffffffffffffffffffffffffffffffffffffffff16815260200190815260200160002081905550600081600881106102d457fe5b016000815480929190600101919050555050565b600860019054906101000a900473ffffffffffffffffffffffffffffffffffffffff1673ffffffffffffffffffffffffffffffffffffffff163373ffffffffffffffffffffffffffffffffffffffff161461034257600080fd5b6001600860006101000a81548160ff021916908315150217905550600a6000815480929190600101919050555060008060006008811061037e57fe5b018190555060008060016008811061039257fe5b01819055506000806002600881106103a657fe5b01819055506000806003600881106103ba57fe5b01819055506000806004600881106103ce57fe5b01819055506000806005600881106103e257fe5b01819055506000806006600881106103f657fe5b018190555060008060076008811061040a57fe5b0181905550565b600860009054906101000a900460ff1681565b600860019054906101000a900473ffffffffffffffffffffffffffffffffffffffff1681565b6000600a54600960003373ffffffffffffffffffffffffffffffffffffffff1673ffffffffffffffffffffffffffffffffffffffff16815260200190815260200160002054101561049e57600190506104a3565b600090505b90565b60096020528060005260406000206000915090505481565b600860019054906101000a900473ffffffffffffffffffffffffffffffffffffffff1673ffffffffffffffffffffffffffffffffffffffff163373ffffffffffffffffffffffffffffffffffffffff161461051857600080fd5b6000600860006101000a81548160ff021916908315150217905550565b6060600860019054906101000a900473ffffffffffffffffffffffffffffffffffffffff1673ffffffffffffffffffffffffffffffffffffffff163373ffffffffffffffffffffffffffffffffffffffff161461059157600080fd5b606060086040519080825280602002602001820160405280156105c35781602001602082028038833980820191505090505b50905060008090505b600881101561060957600081600881106105e257fe5b01548282815181106105f057fe5b60200260200101818152505080806001019150506105cc565b50809150509056fea265627a7a7231582019defe1b12c737f82edc703d9317986724dd5dd356ff7e20c8a99f5c7f7dccee64736f6c63430005100032",
  "source": "// SPDX-License-Identifier: MIT\npragma solidity >=0.4.22 <0.8.0;\n//pragma experimental ABIEncoderV2;\n\ncontract Election {\n\n    uint [8]contestants;\n    bool public status;\n    address public organiser;\n    mapping(address=>uint)public voters;\n    uint electionCount =0;\n    \n    constructor() public{\n        organiser = msg.sender;\n        status = false;\n        contestants[0]=0;\n        contestants[1]=0;\n        contestants[2]=0;\n        contestants[3]=0;\n        contestants[4]=0;\n        contestants[5]=0;\n        contestants[6]=0;\n        contestants[7]=0;\n\n        \n    }\n\n\n    function startVoting() public {\n        \n        require(msg.sender==organiser);\n        status = true;\n        electionCount++;\n        contestants[0]=0;\n        contestants[1]=0;\n        contestants[2]=0;\n        contestants[3]=0;\n        contestants[4]=0;\n        contestants[5]=0;\n        contestants[6]=0;\n        contestants[7]=0;\n    }\n    function endVoting() public{\n        require(msg.sender == organiser);\n        status = false;\n    }\n\n\n    function vote(uint index) public{\n        require(status == true);\n        require(voters[msg.sender]<electionCount);\n        voters[msg.sender]=electionCount;\n        contestants[index]++;\n    }\n    function check() public returns(bool){\n        if(voters[msg.sender]<electionCount)\n            return true;\n        else\n            return false;\n\n    }\n   \n    function getResult() public view returns(uint[] memory){\n        require(msg.sender == organiser);\n\n         uint[] memory result=new uint[](8);\n\n         for(uint i=0;i<8;i++){\n           \n           result[i]=contestants[i];\n         }\n        return result;\n    }\n}",
  "sourcePath": "/home/talha-amin/Downloads/Meta2k20-master PSL/Meta2k20-master/src/contracts/Election.sol",
  "compiler": {
    "name": "solc",
    "version": "0.5.16+commit.9c3226ce.Emscripten.clang"
  },
  "schemaVersion": "3.4.10",
  "updatedAt": "2022-09-18T14:31:15.439Z",
  "networkType": "ethereum",
  "devdoc": {
    "methods": {}
  },
  "userdoc": {
    "methods": {}
  }
}